S012000050726F796563746F5F312E737265632D
S11300000C9434000C9446000C9446000C94460066
S11300100C9446000C9446000C9446000C94460044
S11300200C9446000C9446000C9446000C94460034
S11300300C9446000C9446000C9446000C94460024
S11300400C9446000C9446000C9446000C94460014
S11300500C9446000C9446000C9446000C94460004
S11300600C9446000C94460011241FBECFEFD8E038
S1130070DEBFCDBF21E0A0E0B1E001C01D92A230FF
S1130080B207E1F70E9403010C945C010C94000098
S1130090CF92DF92EF92FF926B017C0187B18F7C4C
S11300A087B9E9EBF0E080818C7F8083413051F0A7
S11300B028F0423081F04330B9F01FC081E08093D2
S11300C0000120C0E9EBF0E080818160808384E05E
S11300D08093000117C0E9EBF0E0808182608083A7
S11300E080E1809300010EC0E9EBF0E08081836041
S11300F0808380E48093000105C0E9EBF0E0808117
S11301008C7F808360E074E284EF90E0A701960125
S11301100E943A01CA01B90160517109810991092A
S11301202091000130E0220F331F032E000C440BFA
S1130130550B0E943A012093B800ECEBF0E080816B
S113014084608083FF90EF90DF90CF90089584EADD
S11301508093BC008091BC008823E4F79091B9009F
S1130160987F81E0983009F080E0089584EA8093D4
S1130170BC008091BC008823E4F79091B900987F7B
S113018081E0903109F080E0089584E98093BC0017
S11301908091BC0084FDFCCF08958093BB0084E86B
S11301A08093BC008091BC008823E4F78091B9005F
S11301B0887F883121F0883219F481E0089581E044
S11301C00895FC01662321F084EC8093BC0003C0F5
S11301D084E88093BC009091BC009923E4F790914B
S11301E0B900987F662311F0903549F4611102C07B
S11301F0983539F48091BB00808381E0089580E0D4
S1130200089580E0089542E060EA76E881E090E0B5
S11302100E9448000E94A700882359F180E60E94AA
S1130220CD00811103C00E94C500089582E50E949B
S1130230CD000E94B600811103C00E94C50008953C
S113024081E60E94CD00811103C00E94C50008957B
S113025060E081E091E00E94E1000E94C5002FEF80
S113026081EE94E0215080409040E1F700C000000E
S1130270D1CF0895A1E21A2EAA1BBB1BFD010DC00C
S1130280AA1FBB1FEE1FFF1FA217B307E407F50742
S113029020F0A21BB30BE40BF50B661F771F881F1E
S11302A0991F1A9469F760957095809590959B01B4
S10F02B0AC01BD01CF010895F894FFCF0C
S9030000FC
