S012000050726F796563746F5F312E737265632D
S11300000C9434000C9451000C9451000C94510045
S11300100C9451000C9451000C9451000C94510018
S11300200C9451000C9451000C9451000C94510008
S11300300C9451000C9451000C9451000C945100F8
S11300400C9451000C9451000C9451000C945100E8
S11300500C9451000C9451000C9451000C945100D8
S11300600C9451000C94510011241FBECFEFD8E022
S1130070DEBFCDBF11E0A0E0B1E0E0E4F4E102C0F6
S113008005900D92AE3FB107D9F722E0AEEFB1E093
S113009001C01D92A633B207E1F70E9433040C9409
S11300A01E0A0C9400000F931F93CF93C82F8B014B
S11300B00E94D9028823D1F08CEE0E94FF0288238B
S11300C0A9F08C2F0E94FF02882381F00E94E8028D
S11300D0882361F08DEE0E94FF02882339F060E0EE
S11300E0C8010E9413030E94F70281E0CF911F917F
S11300F00F910895EF92FF921F93CF93DF9300D057
S1130100CDB7DEB7182F7B01BE016E5F7F4F0E9413
S11301105300882399F0BE016F5F7F4F81E0810F08
S11301200E945300882351F0898190E0982F8827FA
S11301302A81822BF7019183808381E00F900F90B5
S1130140DF91CF911F91FF90EF9008950F931F932C
S1130150CF93DF9300D0CDB7DEB78B01BE016F5FC5
S11301607F4F0E947A00882331F089819A81F801B7
S11301709183808381E00F900F90DF91CF911F9145
S11301800F910895CF93DF93C82FD62F0E94D902E1
S1130190882391F08CEE0E94FF02882369F08C2F53
S11301A00E94FF02882341F08D2F0E94FF028823C2
S11301B019F00E94F70281E0DF91CF9108950F9327
S11301C01F93CF93DF931F92CDB7DEB784E091E006
S11301D00E941306BE016F5F7F4F80ED0E945300A3
S11301E0182F811105C08FE091E00E94130666C0AC
S11301F080E291E00E941306698170E080E090E063
S11302000E943E0688E891E00E94130689818835A1
S113021031F088E291E00E94130610E04FC087E3BA
S113022091E00E9413066AE072E088E80E947A0076
S11302306CE072E08AE80E94A6006EE072E08CE84E
S11302400E94A60081E491E00E9413068BE491E0F1
S11302500E9413060AE012E0F8016081718180E0D7
S113026090E00E943E068FE491E00E941306F8019C
S113027062817381072E000C880B990B0E94200663
S113028084E591E00E941306F80164817581072ECC
S1130290000C880B990B0E94200688E891E00E94CC
S11302A0130667E284EF0E94C20060E085EF0E94BB
S11302B0C20089E591E00E94130611E0812F0F909E
S11302C0DF91CF911F910F910895CF93DF9300D0C9
S11302D01F92CDB7DEB70E94D902882309F457C014
S11302E08CEE0E94FF02882309F455C08AEF0E9415
S11302F0FF02882309F453C00E94E802882309F40A
S113030052C08DEE0E94FF02882309F450C061E0C0
S1130310CE0101960E94130361E0CE0102960E9471
S1130320130360E0CE0103960E9413030E94F702B8
S11303306981862F90E0A0E0B0E0AC01BD01032EFE
S11303403CE0440F551F661F771F3A95D1F7302DB7
S11303508A8190E0A0E0B0E0880F991FAA1FBB1F1C
S1130360880F991FAA1FBB1F880F991FAA1FBB1FA5
S1130370880F991FAA1FBB1F842B952BA62BB72B65
S11303802B8122952F70BC01CD01622B13C060E03C
S113039070E0CB010FC060E070E0CB010BC060E007
S11303A070E0CB0107C060E070E0CB0103C060E007
S11303B070E0CB010F900F900F90DF91CF910895D3
S11303C04F925F926F927F928F929F92AF92BF9261
S11303D0CF92DF92EF92FF920E9465016B017C0144
S11303E0AB01BC01689412F87595679557954795CC
S11303F01694D1F7EAE0F2E040805180612C712C30
S1130400D301C201880F991FAA1FBB1F9A01AB0118
S1130410281B390B4A0B5B0BA281B3810E94B806DF
S11304204B015C01072E7BE0B594A79497948794C5
S11304307A95D1F7702DD701C601689413F8B59554
S1130440A795979587951694D1F7BC01CD016419AA
S11304507509860997099B01AC010E945C069B0102
S1130460AC01012E1CE055954795379527951A95B3
S1130470D1F7102DA481B5810E94B806DC01CB010F
S1130480072E7EE0B595A795979587957A95D1F730
S1130490702D880D991DAA1DBB1D80931002909389
S11304A01102A0931202B09313026C017D01CC0CD3
S11304B0DD1CEE1CFF1CCC0CDD1CEE1CFF1C8C0D8B
S11304C09D1DAE1DBF1D80589F4FAF4FBF4F692F5D
S11304D07A2F8B2F992787FD9A95FF90EF90DF90C5
S11304E0CF90BF90AF909F908F907F906F905F90D0
S11304F04F900895CF92DF92EF92FF926B017C01AF
S113050087B18F7C87B9E9EBF0E080818C7F8083B1
S1130510413051F028F0423081F04330B9F01FC02F
S113052081E08093FE0120C0E9EBF0E080818160EE
S1130530808384E08093FE0117C0E9EBF0E08081C2
S11305408260808380E18093FE010EC0E9EBF0E0DD
S113055080818360808380E48093FE0105C0E9EBA1
S1130560F0E080818C7F808360E074E284EF90E02F
S1130570A70196010E946C06CA01B9016051710974
S1130580810991092091FE0130E0220F331F032ECF
S1130590000C440B550B0E946C062093B800ECEB46
S11305A0F0E0808184608083FF90EF90DF90CF90B3
S11305B0089584EA8093BC008091BC008823E4F70A
S11305C09091B900987F81E0983009F080E0089517
S11305D084EA8093BC008091BC008823E4F7909166
S11305E0B900987F81E0903109F080E0089584E9B2
S11305F08093BC008091BC0084FDFCCF089580935F
S1130600BB0084E88093BC008091BC008823E4F79D
S11306108091B900887F883121F0883219F481E013
S1130620089581E00895FC01662321F084EC809311
S1130630BC0003C084E88093BC009091BC00992363
S1130640E4F79091B900987F662311F0903549F44E
S1130650611102C0983539F48091BB00808381E038
S1130660089580E0089580E008958BB188608BB987
S113067085E08A95F1F700008BB1877F8BB98FE80D
S113068091E00197F1F700C0000008959BB19F70BD
S11306909BB99BB140E1849F90011124292B2BB974
S11306A095B1907F95B995B182958F70892B85B955
S11306B00E94350308959BB19B7F9BB90E9446031A
S11306C08FE39FE10197F1F700C0000008959BB10B
S11306D094609BB90E9446038FE39FE10197F1F771
S11306E000C00000089581E00E945B038FED9EE24C
S11306F00197F1F700C0000008958AB18C608AB9AF
S11307008AB1806F8AB984B18F6084B92FEF83EF87
S113071091E0215080409040E1F700C0000088E360
S11307200E945B038CE00E945B0386E00E945B03F3
S11307300E9473030895811180E4860F80680E94EB
S11307405B030895CF93DF93EC0103C021960E94CD
S1130750670388818111FACFDF91CF9108951F93A8
S1130760CF93DF93182FD62F0E94D902C82F882346
S113077061F18D2F0E94FF02C82F811103C00E94D6
S1130780F70223C081E00E94FF020E94E802C82F02
S1130790811103C00E94F70218C0812F0E94FF023A
S11307A0C82F811103C00E94F7020FC060E08FEFD1
S11307B091E00E9413030E94F7028FE39FE10197E7
S11307C0F1F700C00000C091FF018C2FDF91CF91A1
S11307D01F9108951F93CF93DF93C82FD62F142F03
S11307E00E94D902882301F18C2F0E94FF028111FB
S11307F003C00E94F70218C08D2F0E94FF028111CE
S113080003C00E94F70210C0812F0E94FF028111D1
S113081003C00E94F70208C00E94F7028FE39FE121
S11308200197F1F700C00000DF91CF911F91089567
S1130830643921E17207810591053CF46C3A7D40ED
S11308408105910524F081E0089582E0089580E017
S11308500895813031F0823011F080E0089584E60B
S1130860089582E3089560E875E280E090E00E94D4
S1130870F50584E691E00E9413060E947D0342E0A0
S113088060EA76E881E090E00E947A028BE691E0EB
S11308900E94130684E791E00E941306349B02C071
S11308A081E301C080E30E940C0689E791E00E9485
S11308B01306359B02C081E301C080E30E940C064D
S11308C088E891E00E9413060E94DF008FE791E020
S11308D00E94130660E681E60E94AF03809309023A
S11308E08BE891E00E9413066091090270E080E0B9
S11308F090E00E943E0688E891E00E9413068091F1
S11309000902813079F028F08230B1F08330F1F0BF
S113091027C01092020280E991E090930301809332
S1130920020126C089E18093020284E991E0909358
S11309300301809302011CC082E38093020288E9D0
S113094091E0909303018093020112C084E68093A6
S113095002028CE991E0909303018093020108C0A4
S11309601092020280E991E09093030180930201C6
S113097080EA91E00E9413066091020270E080E038
S113098090E00E943E0688E891E00E9413064091A0
S1130990020262E080E80E94EA030E94E0016093A0
S11309A0030270930402809305029093060284EA82
S11309B091E00E94130660910302709104028091F9
S11309C00502909106020E94200688E891E00E94A8
S11309D013060E9465016B017C018AEA91E00E9482
S11309E01306C701B6010E94200688E891E00E9420
S11309F013066091030270910402809105029091A4
S1130A0006020E941804809307028FEA91E00E9474
S1130A1013066091070270E080E090E00E943E06B9
S1130A2088E891E00E941306809107020E9429043D
S1130A30809301028BEB91E00E9413066091010206
S1130A4070E080E090E00E943E0688E891E00E9419
S1130A5013064091010262E080E60E94EA0360E826
S1130A6081E80E94AF038093080281EC91E00E9428
S1130A7013066091080270E080E090E00E943E0658
S1130A8088E891E00E94130680910802813079F091
S1130A9028F08230B1F08330F1F027C010920002C8
S1130AA087EC91E0909301018093000126C08DE2D0
S1130AB0809300028BEC91E09093010180930001FC
S1130AC01CC08EE1809300028FEC91E090930101B1
S1130AD08093000112C08AE08093000283ED91E0CC
S1130AE0909301018093000108C01092000287ECEA
S1130AF091E0909301018093000187ED91E00E94C1
S1130B0013066091000270E080E090E00E943E06CF
S1130B1088E891E00E9413064091000263E080E6B9
S1130B200E94EA036091030270910402809105021D
S1130B309091060224E630E040E050E00E948E06E8
S1130B40C22F2AE030E040E050E00E948E068EE0A2
S1130B50EEEDF1E0A5E2B2E001900D928A95E1F7A5
S1130B60809101018F93809100018F931F922F93A5
S1130B701F92CF93809103018F93809102018F93F1
S1130B808CEE91E09F938F931F9281E18F9384E188
S1130B9092E09F938F930E9416070E94730360E074
S1130BA080E00E949B0385E292E00E94A20360E041
S1130BB081E00E949B0384E192E00E94A20388E802
S1130BC091E00E9413062FEF83ED90E321508040C3
S1130BD09040E1F700C000008DB79EB70E960FB6A7
S1130BE0F8949EBF0FBE8DBF75CE9B01AC0160E42F
S1130BF072E48FE090E00E946C062150310930933A
S1130C00C5002093C4001092C00088E18093C10005
S1130C1086E08093C20008959091C00095FFFCCFB8
S1130C208093C6000895CF93DF93EC0103C021960F
S1130C300E940C0688818111FACFDF91CF9108952B
S1130C40CF93DF93CDB7DEB72C970FB6F894DEBF02
S1130C500FBECDBF2AE030E0AE014F5F5F4F0E9470
S1130C60CF06CE0101960E9413062C960FB6F89477
S1130C70DEBF0FBECDBFDF91CF910895CF93DF9339
S1130C80CDB7DEB72C970FB6F894DEBF0FBECDBF3D
S1130C902AE030E0AE014F5F5F4F0E94E906CE01CB
S1130CA001960E9413062C960FB6F894DEBF0FBE71
S1130CB0CDBFDF91CF910895DB018F939F930E9465
S1130CC0AD06BF91AF91A29F800D911DA39F900D82
S1130CD0B29F900D11240895A1E21A2EAA1BBB1BEA
S1130CE0FD010DC0AA1FBB1FEE1FFF1FA217B307F4
S1130CF0E407F50720F0A21BB30BE40BF50B661F0A
S1130D00771F881F991F1A9469F7609570958095CD
S1130D1090959B01AC01BD01CF010895052E97FB71
S1130D201EF400940E94A50657FD07D00E946C068D
S1130D3007FC03D04EF40C94A506509540953095CD
S1130D4021953F4F4F4F5F4F089590958095709533
S1130D5061957F4F8F4F9F4F08950E94C006A59FB6
S1130D60900DB49F900DA49F800D911D11240895A2
S1130D70B7FF0C94AD060E94AD06821B930B089539
S1130D80A29FB001B39FC001A39F700D811D1124C8
S1130D90911DB29F700D811D1124911D089525325E
S1130DA0310520F4223010F00C94DA06FA01108296
S1130DB0CA010895BB272A3051F4992342F4BDE2B5
S1130DC090958095709561957F4F8F4F9F4F0C94B0
S1130DD0F5062532310520F4223010F00C94F40687
S1130DE0FA011082CA010895BB27FA01A62F6217DF
S1130DF0710581059105330B30FB66F0AA27660F58
S1130E00771F881F991FAA1FA21710F0A21B6395B2
S1130E103850A9F7A05DAA3308F0A95DA19336F76D
S1130E20B111B1931082CA010C943D09AEE0B0E057
S1130E30ECE1F7E00C94F5090D891E898F89988DF2
S1130E4026E02C831A83098397FF02C080E090E890
S1130E5001979E838D83AE01455E5F4F698D7A8DC8
S1130E60CE0101960E9446074D815E8157FD0AC05E
S1130E702F813885421753070CF49A01F801E20FC9
S1130E80F31F10822E96E4E00C94110AABE0B0E05C
S1130E90ECE4F7E00C94E7096C017B018A01FC01A6
S1130EA017821682838181FFCCC1CE0101963C0159
S1130EB0F6019381F70193FD859193FF81917F0161
S1130EC0882309F4BAC1853239F493FD859193FFDF
S1130ED081917F01853229F4B60190E00E944D0989
S1130EE0E7CF912C212C312CFFE1F315D8F08B3274
S1130EF079F038F4803279F08332A1F4232D206123
S1130F001DC08D3261F0803369F4232D216016C039
S1130F10832D8260382EE32DE4603E2E2AC0F32D0B
S1130F20F8601DC037FC2DC020ED280F2A3040F09A
S1130F308E32B9F436FC81C1232D2064322E19C0BF
S1130F4036FE06C08AE0989E200D1124922E11C010
S1130F50EAE02E9E200D1124222EF32DF0623F2E66
S1130F6008C08C3621F4832D8068382E02C0883660
S1130F7041F4F70193FD859193FF81917F018111E4
S1130F80B3CF982F9F7D9554933028F40C5F1F4F57
S1130F909FE399830DC0833631F0833771F0833535
S1130FA009F059C021C0F801808189830E5F1F4F69
S1130FB088248394912C530113C02801F2E04F0E2E
S1130FC0511CF801A080B18036FE03C0692D70E089
S1130FD002C06FEF7FEFC5010E9432094C0182010C
S1130FE0F32DFF773F2E16C0280122E0420E511C3C
S1130FF0F801A080B18036FE03C0692D70E002C004
S11310006FEF7FEFC5010E9427094C01F32DF068B3
S11310103F2E820133FC1BC0822D90E08816990676
S1131020B0F4B60180E290E00E944D092A94F4CF16
S1131030F50137FC859137FE81915F01B60190E09F
S11310400E944D0921102A9421E0821A91088114EA
S1131050910471F7E8C0843611F0893641F5F8013E
S113106037FE07C060817181828193810C5F1F4FBD
S113107008C060817181072E000C880B990B0E5FEC
S11310801F4FF32DFF763F2E97FF09C09095809553
S1131090709561957F4F8F4F9F4FF0683F2E2AE0E8
S11310A030E0A3010E948909882E861845C085373F
S11310B031F4232D2F7EB22E2AE030E025C0932D6B
S11310C0997FB92E8F36C1F018F4883579F0B5C000
S11310D0803719F0883721F0B0C0E92FE061BE2EC7
S11310E0B4FE0DC0FB2DF460BF2E09C034FE0AC04F
S11310F0292F2660B22E06C028E030E005C020E18A
S113110030E002C020E132E0F801B7FE07C06081A0
S11311107181828193810C5F1F4F06C06081718150
S113112080E090E00E5F1F4FA3010E948909882E82
S11311308618FB2DFF773F2E36FE0DC0232D2E7F04
S1131140A22E891458F434FE0BC032FC09C0832D3E
S11311508E7EA82E05C0B82CA32C03C0B82C01C0C9
S1131160B92CA4FE0FC0FE01E80DF11D808180336F
S113117021F49A2D997EA92E09C0A2FE06C0B3942B
S1131180B39404C08A2D867809F0B394A3FC11C0EB
S1131190A0FE06C0B21488F4280C922C9B180EC032
S11311A0B21460F4B60180E290E00E944D09B39459
S11311B0F7CFB21418F42B1802C0982C212CA4FEDB
S11311C010C0B60180E390E00E944D09A2FE17C052
S11311D0A1FC03C088E790E002C088E590E0B60176
S11311E00CC08A2D867859F0A1FE02C08BE201C0A2
S11311F080E2A7FC8DE2B60190E00E944D098914BB
S113120038F4B60180E390E00E944D099A94F7CF38
S11312108A94F301E80DF11D8081B60190E00E94EB
S11312204D098110F5CF222009F442CEB60180E2A7
S113123090E00E944D092A94F6CFF60186819781A9
S113124002C08FEF9FEF2B96E2E10C94030AFC019E
S11312500590615070400110D8F7809590958E0FDD
S11312609F1F0895FC016150704001900110D8F750
S1131270809590958E0F9F1F0895DC01FC01672FC8
S113128071917723E1F7329704C07C916D93708359
S11312906291AE17BF07C8F308950F931F93CF93BE
S11312A0DF93FB01238121FD03C08FEF9FEF2CC04F
S11312B022FF16C046815781248135814217530786
S11312C044F4A081B1819D012F5F3F4F318320837E
S11312D08C93268137812F5F3F4F3783268314C039
S11312E08B01EC01FB010084F185E02D0995892B2C
S11312F0E1F6D80116968D919C9117970196179651
S11313009C938E931697CE01DF91CF911F910F91ED
S11313100895FA01AA27283051F1203181F1E89487
S11313206F936E7F6E5F7F4F8F4F9F4FAF4FB1E0D4
S11313303ED0B4E03CD0670F781F891F9A1FA11DCF
S1131340680F791F8A1F911DA11D6A0F711D811DD0
S1131350911DA11D20D009F468943F912AE0269F95
S113136011243019305D3193DEF6CF010895462FF4
S11313704770405D4193B3E00FD0C9F7F6CF462FD5
S11313804F70405D4A3318F0495D31FD405241933E
S113139002D0A9F7EACFB4E0A695979587957795FB
S11313A06795BA95C9F700976105710508959B0182
S11313B0AC010A2E06945795479537952795BA950B
S11313C0C9F7620F731F841F951FA01D08952F92E4
S11313D03F924F925F926F927F928F929F92AF92C1
S11313E0BF92CF92DF92EF92FF920F931F93CF930E
S11313F0DF93CDB7DEB7CA1BDB0B0FB6F894DEBFA5
S11314000FBECDBF09942A88398848885F846E84CA
S11314107D848C849B84AA84B984C884DF80EE8014
S1131420FD800C811B81AA81B981CE0FD11D0FB61D
S1131430F894DEBF0FBECDBFED010895F894FFCF41
S11314408A018A01424D503A696E69740D0A00425C
S11314504D503A7265616438206661696C0D0A000A
S1131460424D503A69643D00424D503A69642077D8
S1131470726F6E670D0A00424D503A63616C0D0A3B
S113148000424D503A6366670D0A0054313D002016
S113149054323D002054333D00424D503A646F6E47
S11314A0650D0A00424F4F540D0A00493243204F44
S11314B04B0D0A005344413D002053434C3D004230
S11314C04D50323830204F4B0D0A004741533D00F8
S11314D0454D500043525400484C4600464C4C0085
S11314E044433D0054454D503D005241573D005446
S11314F0454D505F53544154453D00535445503D70
S113150000444953543D004F555400464152004D48
S1131510494400434C5300534552564F3D00474104
S1131520532054454D5020444953540025337320CF
S11115302532752E25317543202533730000B6
S9030000FC
