:100000000C9434000C9451000C9451000C94510049
:100010000C9451000C9451000C9451000C9451001C
:100020000C9451000C9451000C9451000C9451000C
:100030000C9451000C9451000C9451000C945100FC
:100040000C9451000C9451000C9451000C945100EC
:100050000C9451000C9451000C9451000C945100DC
:100060000C9420010C94510011241FBECFEFD8E056
:10007000DEBFCDBF11E0A0E0B1E0E2ECF4E002C0F1
:1000800005900D92A230B107D9F721E0A2E0B1E0CE
:1000900001C01D92A830B207E1F70E94C1010C9483
:1000A0005F020C9400008AB188608AB98AB18B7FA4
:1000B0008AB98BB1877F8BB908958BB1877F8BB954
:1000C0002AE02A95F1F700C08BB188608BB985E3EF
:1000D0008A95F1F700008BB1877F8BB980E69AEEA5
:1000E000A0E0B0E008C00197A109B10931F125E015
:1000F0002A95F1F700004A9BF6CF40E050E0BA01A4
:1001000080E395E7A0E0B0E00CC00197A109B10938
:1001100051F04F5F5F4F6F4F7F4F25E02A95F1F70A
:1001200000004A99F2CFCB01BA012AE330E040E067
:1001300050E00E942E02C901089580E090E00895E9
:1001400097B19F7C97B990E0880F991F8160809349
:10015000BA0085E48093BC0008958AB1806F8AB9A3
:1001600084B1836084B983E884BD82E085BD17BC17
:1001700081E8809380008AE080938100109289005A
:100180001092880008959BB190699BB99BB19F7DA7
:100190009BB995B19E7F95B987BD90E090938900FA
:1001A000809388000895843678F49FEF899F9001AA
:1001B00011243695279536952795ABE7B4E10E9433
:1001C00050029695879508958FEF089584B18C63BA
:1001D00084B985B1837C85B9089595B1937C95B92F
:1001E000811104C085B1846085B90895813021F4FE
:1001F00085B1886085B90895823021F485B1806128
:1002000085B9089585B1806285B9089582309105D8
:1002100020F4FB01108280E0089521E0FB0120839F
:100220008333910538F48B30910530F04F9730F4DB
:1002300082E0089580E0089583E0089581E00895C4
:100240001F920F920FB60F9211242F933F934F934B
:100250005F936F937F938F939F93AF93BF93EF932E
:10026000FF938091B900887F803AA9F158F48037D4
:10027000C1F018F48036A9F070C08038C1F0803920
:10028000B1F06BC0883B09F45CC020F4883A09F4F3
:1002900046C063C0803C09F45CC0883C09F459C086
:1002A0005CC01092040185EC8093BC0059C0809121
:1002B0000401823060F4E091040181E08E0F8093AC
:1002C0000401F0E08091BB00EB5FFE4F808385EC82
:1002D0008093BC0045C0809104018823E1F08091A7
:1002E000050180930201809102018230A1F4809186
:1002F0000401823080F0809106018093000180919A
:100300000001882319F08091000101C089E10E9459
:10031000D3000E94C30085EC8093BC0021C01092E2
:100320000301E091030181E08E0F80930301F0E06F
:10033000E95FFE4F80818093BB0085EC8093BC0019
:100340000FC0809107018093BB0085EC8093BC00B7
:1003500007C085EC8093BC0003C085EC8093BC0093
:10036000FF91EF91BF91AF919F918F917F916F918D
:100370005F914F913F912F910F900FBE0F901F9063
:100380001895CF93DF931F92CDB7DEB70E94E6009A
:100390000E9453000E94AD008FEF0E94C30080E4D2
:1003A0000E94A00078940E945D008C012FEF89EFDD
:1003B00090E0215080409040E1F700C000000E9492
:1003C0005D007C012FEF89EF90E02150804090404C
:1003D000E1F700C000000E945D000E151F0518F037
:1003E00080179107C8F40817190718F0E016F106EE
:1003F00098F4E016F10618F08E159F0540F4E81603
:10040000F90638F00E151F0530F48C0105C0870180
:1004100003C08C0101C087011982BE016F5F7F4F4D
:10042000C8010E940601182F80910001811105C0AA
:1004300089E10E94D3000E94C300812F0E94ED0039
:10044000F8941093070178942FEF8DEE92E02150ED
:1004500080409040E1F700C00000A5CFA1E21A2E35
:10046000AA1BBB1BFD010DC0AA1FBB1FEE1FFF1F58
:10047000A217B307E407F50720F0A21BB30BE40BA8
:10048000F50B661F771F881F991F1A9469F76095EF
:100490007095809590959B01AC01BD01CF010895A9
:1004A000A29FB001B39FC001A39F700D811D1124B5
:1004B000911DB29F700D811D1124911D0895F89416
:0204C000FFCF6C
:0204C2006400D4
:00000001FF
